:090233000109FF010800010C00A3
:08023D007F0A7E57DEFEDFFCA4
:010245002296
:0C0226007FF47E827D04DDFEDEFCDFFA4A
:0102320022A9
:0401B100A2E6920030
:1001B50030001BD2B300000000000000000000006A
:1001C50000000000000000000000C2B38019D2B397
:1001D50000000000000000C2B300000000000000A5
:0F01E500000000000000000000000000000022E9
:10002600ED3392001201B5ED1201B1A2E592001274
:1000360001B5A2E492001201B5A2E392001201B545
:10004600A2E292001201B5A2E192001201B513924A
:10005600001201B5EF3392001201B5EF1201B1A201
:10006600E592001201B5A2E492001201B5A2E39254
:10007600001201B5A2E292001201B5A2E1920012AD
:1000860001B51392001201B5EB3392001201B5EBE4
:100096001201B1A2E592001201B5A2E4920012018A
:1000A600B5A2E392001201B5A2E292001201B5A236
:0C00B600E192001201B51392000201B5A6
:10000600759850438E40538EFE53890F758B8F75AE
:090016008DFDC2ABD28ED2AC22EA
:10014E00E4F594F593F592F591F596F595F5B2F5EE
:10015E00B1F5B4F5B3F5CAF5C9D2CDC2B3D288D2D2
:10016E00A8120006D2AF7587020020B2091202262D
:10017E0020B203630BFFE50B6021C2CDE4FEEEC39C
:10018E00940C74809480500CAB0CAD08AF09120027
:10019E00260E80EAC2B312023D80CFD2CD75870201
:0301AE000080C707
:0300030002001FD9
:01001F0032AE
:030023000201F4E3
:1001F400C0E0C0D0309826C298E50A14600E14609E
:100204001224027015859909050A8011859908053B
:100214000A800A85990C050A8003750A00D0D0D09B
:02022400E032C6
:030000000200C239
:0C00C200787FE4F6D8FD7581200201096A
:1000CE0002014EE493A3F8E493A34003F68001F2F9
:1000DE0008DFF48029E493A3F85407240CC8C33333
:1000EE00C4540F4420C8834004F456800146F6DF02
:1000FE00E4800B0102040810204080900233E47E5D
:10010E00019360BCA3FF543F30E509541FFEE493F6
:10011E00A360010ECF54C025E060A840B8E493A3BD
:10012E00FAE493A3F8E493A3C8C582C8CAC583CAE8
:10013E00F0A3C8C582C8CAC583CADFE9DEE780BEA0
:01023C0000C1
:00000001FF
